:1000000028C04CC04BC04AC049C0F0C247C046C01F
:1000100045C044C043C042C041C040C03FC00000D2
:10002000000037000000000036000000000038002B
:10003000020202020202020202020102040810206D
:100040002004100801020000040000000000DD048C
:10005000370511241FBECFE5D2E0DEBFCDBF10E0D3
:10006000A0E6B0E0E8EFFDE002C005900D92AA39ED
:10007000B107D9F720E0AAE9B0E001C01D92AF3B7B
:10008000B207E1F710E0C8E2D0E003C02197FE011B
:1000900075D5C732D107D1F7F3D2A2C6B1CF4F92EF
:1000A0005F926F927F928F929F92AF92BF92CF9208
:1000B000DF92EF92FF921F93CF93DF93EC016A01DF
:1000C0007B012701662477248D2C9E2CAF2CBB242A
:1000D000182D2091AD00222379F030E0C901B20142
:1000E000EAD4492E882D90E0B901E5D4192F8C2D42
:1000F00090E0B901E0D4492FA091B3002091AE0067
:100100003091AF008091B000A81328C0CE0163E009
:1001100070E0D1D4820F931FA091B000A80FB92F27
:10012000B11D4C92E091B100E80FF92FF11D108341
:100130002091B200820F911DFC014083DF91CF918D
:100140001F91FF90EF90DF90CF90BF90AF909F9066
:100150008F907F906F905F904F900895CE01880FA1
:10016000991F880F991F820F931FA80FB92FB11DD8
:100170001C92D2CF1F93CF93DF9311E0180F2091E1
:10018000AD00121789F1C091AE00D091AF0021509F
:1001900031F18F3FD1F430E050E040E06FEF7FEF7E
:1001A00080E090E0ADD4FE014091A9005091AA00FA
:1001B000CF018C1B9D0B84179507A0F4808190E0E4
:1001C000B90179D490833196EFCF812F90E0982FA9
:1001D00088270197622F70E07FD49B01E4CF30E045
:1001E00020E0E1CF1093AD00DF91CF911F910895F2
:1001F000823089F018F4813051F00895833019F07D
:10020000843009F008958CB58F7D8CBD08958AB532
:100210008F778ABD08958AB58F7DFBCFCF93DF930B
:10022000282F30E0F901EC5BFF4F8491F901E65C87
:10023000FF4FD491F901E05DFF4FC491CC2389F0C9
:100240008111D6DFEC2FF0E0EE0FFF1FE65DFF4FD0
:10025000A591B4918FB7F894EC91D095DE23DC93FF
:100260008FBFDF91CF910895CF93DF93282F30E098
:10027000F901EC5BFF4F8491F901E65CFF4FD491EB
:10028000F901E05DFF4FC491CC2399F08111B0DFFB
:10029000EC2FF0E0EE0FFF1FEC5DFF4FA591B49146
:1002A000EC91ED2381E090E009F480E0DF91CF91C3
:1002B000089580E090E0FACFCF93DF9390E0FC01C7
:1002C000E65CFF4F2491805D9F4FFC018491882361
:1002D000D1F090E0880F991FFC01E25EFF4FA591DD
:1002E000B491FC01E65DFF4FC591D49161110EC040
:1002F0009FB7F8948C91E22FE0958E238C93288100
:10030000E223E8839FBFDF91CF9108958FB7F894E0
:10031000EC91E22BEC938FBFF6CF3FB7F89480912E
:100320009F009091A000A091A100B091A20022B7DF
:1003300008B601FE05C02F3F19F00196A11DB11DA1
:100340003FBFBA2FA92F982F8827BC01CD01620F7C
:10035000711D811D911D43E0660F771F881F991F36
:100360004A95D1F708950F931F93CF93DF9300D051
:1003700000D000D01F92CDB7DEB78091AE00909133
:10038000AF00892B09F49DC0C8DF0091B400109123
:10039000B5002091B6003091B70060177107820751
:1003A000930740F46093B4007093B5008093B60057
:1003B0009093B7000091B4001091B5002091B60061
:1003C0003091B700601B710B820B930B6C32714044
:1003D00081059105C8F2F8948091A9009091AA0036
:1003E0009A838983A091AE00B091AF00FD01319650
:1003F0008C918F831B8298B38091BA00982B9E8337
:1004000098B3809589238D838D818C838F8187FF1D
:1004100002C08E818C835E816D814F813C812B81F6
:1004200089819A8158BB262F38BB00C046FD252FF5
:1004300068BB00C058BB362F28BB00C045FD352F18
:1004400068BB00C058BB262F38BB00C044FD252F19
:1004500068BB00C058BB362F28BB00C043FD352FFA
:1004600068BB00C058BB262F38BB00C042FD252FFB
:1004700068BB00C058BB362F28BB00C041FD352FDC
:1004800068BB00C058BB262F38BB00C040FD252FDD
:1004900068BB019758BB362F28BB419147FD352FCC
:1004A00068BB01F64F833C832B839A8389837894BE
:1004B00034DF6093B4007093B5008093B6009093DE
:1004C000B70027960FB6F894DEBF0FBECDBFDF9101
:1004D000CF911F910F9108958F929F92AF92BF92EB
:1004E000CF92DF92EF92FF924B015C0116DF6B011E
:1004F0007C0113DF6C197D098E099F09683E7340EA
:1005000081059105B0F321E0821A9108A108B10894
:1005100088EEC80E83E0D81EE11CF11C8114910402
:10052000A104B10431F7FF90EF90DF90CF90BF901E
:10053000AF909F908F900895CF92DF92EF92FF92AD
:100540000F931F93CF93DF9310E000E0C82FD0E00C
:10055000CE018E589F4F7C01FE01E759FF4F6F017E
:10056000C05ADF4FF7018081F601408198812091C8
:10057000A7003091A8000217130758F450E070E06C
:1005800060E0762F652F542F4427692B482BC80134
:1005900086DDE9DE0F5F1F4F0830110519F7DF9187
:1005A000CF911F910F91FF90EF90DF90CF90089522
:1005B000FF920F931F93CF93DF938C01EB01F88091
:1005C00064D2F81619F06F2DC80167D2CE01DF9101
:1005D000CF911F910F91FF900895CF93DF93EB017F
:1005E00054D28883CE01DF91CF9108951F920F924C
:1005F0000FB60F9211242F933F938F939F93AF9336
:10060000BF9380919B0090919C00A0919D00B09120
:100610009E0030919A0026E0230F2D3758F5029660
:10062000A11DB11D20939A0080939B0090939C0084
:10063000A0939D00B0939E0080919F009091A00098
:10064000A091A100B091A2000196A11DB11D8093BF
:100650009F009093A000A093A100B093A200BF912F
:10066000AF919F918F913F912F910F900FBE0F905F
:100670001F90189529E8230F0396A11DB11DD2CF15
:10068000CF93DF93CDB7DEB768970FB6F894DEBF90
:100690000FBECDBF78948AB582608ABD8AB581606D
:1006A0008ABD83B7826083BF83B7816083BF89B708
:1006B000826089BF80B7826080BF80B7816080BF61
:1006C000329A319A3098379A8CB580648CBD80917B
:1006D000AB009091AC0097FD05C061E0EDDD80912D
:1006E000AB009CDD81E08093A60063EA70E090E0BF
:1006F00080E073DF65EA70E081E090E06EDF80917A
:10070000A300833318F082E38093A3008091A300B9
:10071000853018F485E08093A3008091A3002ADD42
:1007200060E083E0C9DD60E082E0C6DD60E081E09A
:10073000C3DD60E080E0C0DD83E096DD019709F075
:10074000CCC04091A9005091AA0070E060E0809177
:10075000AE009091AF003DD306DE6CE474E080E023
:1007600090E0BADE88E1E1E8F0E0DE011196019068
:100770000D928A95E1F710E000E0B12CA12CF12C4C
:10078000E12CCC24C394D12CCC0EDD1ECA0CDB1C76
:1007900081E0E816F10451F4F601068110E0F5E07D
:1007A000EF16F10481F4F601028128C0E114F1048E
:1007B00019F4F6010581F2CFF2E0EF16F10451F4DD
:1007C000F601058110E0F6E0EF16F10451F4F601B0
:1007D000018114C0F3E0EF16F10451F4F601048135
:1007E00010E0F7E0EF16F10451F4F601008106C0C5
:1007F000F4E0EF16F10499F6F601038110E0F80138
:10080000EE58FF4F8081F801E759FF4F4081F80112
:10081000E05AFF4F90812091A7003091A800E21686
:10082000F30658F450E070E060E0762F652F542F07
:100830004427692B482BC70132DC95DD66E070E068
:1008400080E090E049DEFFEFEF1AFF0A88E0E8164B
:10085000F10409F09DCFEFEFAE1ABE0AF0E1AF163A
:10086000B10409F08CCF60ED77E080E090E034DEF9
:1008700000E010E085E0F82E92E3E92E8091A500DB
:100880005BDE83E0F1DC892BD1F562E370E080E090
:1008900090E022DE83E0E8DC892B89F583E0E4DC6C
:1008A000892BE1F483E0E0DC892BC1F481E0DCDC1E
:1008B000892BD1F562E370E080E090E00DDE81E00D
:1008C000D3DC892B89F581E0CFDC892BF1F462E35D
:1008D00070E080E090E000DEF6CFFFCF8091A400D2
:1008E000882309F45DC063EA70E090E080E060DE98
:1008F00065EA70E081E090E05BDE1092A4000115F3
:10090000110509F4BBCF7CDBB9CF8091A3008E32F7
:1009100030F1E092A30081E08093A4008091A300D5
:1009200029DC8091A50008DE82E09EDC892B91F510
:1009300062E370E080E090E0CFDD82E095DC892B1F
:1009400049F582E091DC892B81F08091A3008A3007
:10095000B0F08091A30085508093A30012C08091D5
:10096000A3008B5F8093A300D6CF83E07DDC892B2F
:1009700061F762E370E080E090E0AEDDE2CFF092FC
:10098000A30081E08093A4008091A300F3DB809119
:10099000A500D2DD62E370E080E090E09DDD7ECFD7
:1009A0008091A500883019F41092A5009CCF809109
:1009B000A5008F5F8093A50096CF1092A60010929D
:1009C000AD001092B4001092B5001092B6001092D3
:1009D000B70081E08093B3008093B0001092B10023
:1009E00082E08093B20088E190E09093AA00809327
:1009F000A900CAD09093AF008093AE00009771F128
:100A000028E1FC0111922A95E9F788E090E09093A3
:100A1000A8008093A70084E090E09093AC008093BE
:100A2000AB008091A600882329F061E084E044DCDB
:100A300084E0F4DBE4E3F0E0E491F0E0EE0FFF1F8C
:100A4000E65DFF4F859194919093B9008093B80033
:100A5000EEE3F0E0E491E093BA0008951092AA006A
:100A60001092A9001092A8001092A700D4CF8091F4
:100A7000AE009091AF0024D18091AB009091AC007A
:100A800097FD02C060E018CC0895E199FECF9FBBAE
:100A90008EBBE09A99278DB30895262FE199FECF5A
:100AA0001CBA9FBB8EBB2DBB0FB6F894E29AE19A9D
:100AB0000FBE019608950024552704C0080E591F43
:100AC000880F991F009729F076956795B8F37105FF
:100AD000B9F7802D952F0895AA1BBB1B51E107C0C4
:100AE000AA1FBB1FA617B70710F0A61BB70B881FBE
:100AF000991F5A95A9F780959095BC01CD0108954D
:100B0000052E97FB16F400940FD057FD05D014D096
:100B100007FC02D046F408C05095409530952195C9
:100B20003F4F4F4F5F4F0895909580957095619519
:100B30007F4F8F4F9F4F0895A1E21A2EAA1BBB1B18
:100B4000FD010DC0AA1FBB1FEE1FFF1FA217B30799
:100B5000E407F50720F0A21BB30BE40BF50B661FAF
:100B6000771F881F991F1A9469F760957095809573
:100B700090959B01AC01BD01CF010895EE0FFF1FC1
:100B80000590F491E02D09940F931F93CF93DF9379
:100B90008230910510F482E090E0E091BD00F09188
:100BA000BE0030E020E0B0E0A0E0309799F42115DD
:100BB000310509F44AC0281B390B24303105D8F51A
:100BC0008A819B816115710589F1FB019383828381
:100BD000FE0111C0408151810281138148175907DC
:100BE000E0F04817590799F4109761F012960C93AA
:100BF000129713961C933296CF01DF91CF911F91DC
:100C00000F9108950093BD001093BE00F4CF2115FD
:100C1000310551F04217530738F0A901DB019A0161
:100C2000BD01DF01F801C1CFEF01F9CF9093BE0004
:100C30008093BD00CDCFFE01E20FF31F819391930E
:100C40002250310939832883D7CF2091BB003091BE
:100C5000BC00232B41F420917D0030917E00309325
:100C6000BC002093BB0020917B0030917C002115BB
:100C7000310541F42DB73EB740917F00509180007F
:100C8000241B350BE091BB00F091BC00E217F30789
:100C9000A0F42E1B3F0B2817390778F0AC014E5FEC
:100CA0005F4F2417350748F04E0F5F1F5093BC006D
:100CB0004093BB00819391939FCFF0E0E0E09CCF05
:100CC000CF93DF930097E9F0FC01329713821282F1
:100CD000A091BD00B091BE00ED0130E020E0109782
:100CE000A1F420813181820F931F2091BB003091AC
:100CF000BC002817390709F061C0F093BC00E093ED
:100D0000BB00DF91CF910895EA01CE17DF07E8F528
:100D10004A815B819E0141155105B1F7E901FB83D1
:100D2000EA8349915991C40FD51FEC17FD0761F46F
:100D3000808191810296840F951FE90199838883B0
:100D4000828193819B838A83F0E0E0E012968D910B
:100D50009C9113970097B9F52D913C911197CD0176
:100D60000296820F931F2091BB003091BC00281780
:100D7000390739F6309751F51092BE001092BD0038
:100D8000B093BC00A093BB00BCCFD383C28340818F
:100D90005181840F951FC817D90761F44E5F5F4FCB
:100DA00088819981480F591F518340838A819B8193
:100DB000938382832115310509F0B0CFF093BE00F3
:100DC000E093BD009ECFFD01DC01C0CF13821282F3
:100DD000D7CFDC0101C06D9341505040E0F708953A
:100DE00010E0C8E2D0E003C0FE01C8DE2196C9329F
:080DF000D107D1F7F894FFCF01
:100DF800FFFFFF000000FFFF000064C8FFFF0000C6
:100E0800FF0000000000FFFFFFFF000000BF0080A0
:100E1800000808080808080802020000060603037C
:0A0E28000505050505050505050093
:00000001FF
